:100000000C945B000C9483000C9483000C9483008C
:100010000C9483000C9483000C9483000C94830054
:100020000C9483000C9483000C9483000C94830044
:100030000C9483000C9483000C9483000C94830034
:100040000C94C5030C9483000C9417060C94830045
:100050000C9483000C9483000C9483000C94830014
:100060000C9483000C948300000024272A000025B0
:10007000282B000023262904040404040404040299
:100080000202020202030303030303010204081035
:100090002040800102040810200102040810200002
:1000A0000000070002010000030406000000000039
:1000B00000000000C40311241FBECFEFD4E0DEBF58
:1000C000CDBF11E0A0E0B1E0E6E3FFE002C00590A3
:1000D0000D92A630B107D9F711E0A6E0B1E001C05A
:1000E0001D92A839B107E1F710E0C6EBD0E004C0DB
:1000F0002297FE010E949607C43BD107C9F70E94D0
:10010000ED020C949A070C940000FC01608341837B
:1001100012821382148215820895FC016083418348
:1001200012821382148215820895CF92DF92EF9289
:10013000FF920F931F93CF93DF93EC01C62E8A811A
:100140009B81AC81BD810097A105B10579F10E813C
:100150001F810350104060E089810E945205C80150
:100160000E94240481E0D82EEE24FF248C2D9927B0
:100170002D2D332782239323892B11F061E001C0B9
:1001800060E089810E945205C8010E942404DD0CB0
:100190000894E11CF11C88E0E816F10439F761E0ED
:1001A00089810E945205C8010E942404DF91CF91E9
:1001B0001F910F91FF90EF90DF90CF9008950E94D4
:1001C000950008952F923F924F925F926F927F9287
:1001D0008F929F92AF92BF92CF92DF92EF92FF9257
:1001E0000F931F93CF93DF93CDB7DEB7A0970FB6D2
:1001F000F894DEBF0FBECDBF1C016A017B01411523
:1002000051056105710521F460E30E94DF003EC0E5
:10021000882499245401422E55246624772401E031
:1002200010E00C0F1D1F080D191DC701B601A30119
:1002300092010E944307F80160830894811C911C7D
:10024000A11CB11CC701B601A30192010E94430782
:1002500069017A01211531054105510591F0DFCF82
:10026000089481089108A108B108FE01E80DF91D64
:1002700061816A3010F4605D01C0695CC1010E9457
:10028000DF0081149104A104B10451F7A0960FB6C8
:10029000F894DEBF0FBECDBFDF91CF911F910F91BC
:1002A000FF90EF90DF90CF90BF90AF909F908F9096
:1002B0007F906F905F904F903F902F9008952AE02D
:1002C0000E94E2000895AB01662777270E945F0134
:1002D00008950F931F938C016DE00E94DF006AE088
:1002E000C8010E94DF001F910F9108950F931F9383
:1002F0008C010E945F01C8010E9469011F910F914A
:1003000008950F931F938C010E949500C8010E94CD
:1003100069011F910F9108950F931F938C010E9403
:10032000DF00C8010E9469011F910F910895EF92AB
:10033000FF920F931F93CF93DF93EC017A018B0110
:1003400077FF0BC06DE20E94DF0010950095F094DE
:10035000E094E11CF11C011D111D2AE0B801A70168
:10036000CE010E94E200DF91CF911F910F91FF908B
:10037000EF9008950F931F938C010E949701C8017D
:100380000E9469011F910F9108952115310521F4F3
:10039000642F0E94DF0008952A30310519F40E946D
:1003A000970108950E94E20008950F931F938C0116
:1003B0000E94C501C8010E9469011F910F91089513
:1003C000AB01662757FD6095762F0E94970108952F
:1003D0000F931F938C010E94E001C8010E946901E4
:1003E0001F910F9108950F931F93CF93DF938C016B
:1003F000EB0104C02196C8010E94DF0068816623DA
:10040000C9F7DF91CF911F910F9108950F931F931B
:100410008C010E94F301C8010E9469011F910F9194
:1004200008950F931F938C019A01AB01FC01228365
:1004300033834483558360E472E48FE090E00E944C
:100440006507F8013783268361E081810E945205A8
:10045000F801868197810E9424041F910F910895CD
:10046000CF92DF92EF92FF920F931F93CF93DF9380
:100470008C01FC01E680F7808DEF9FEFE80EF91EFE
:10048000F80180810E940605892BD1F7F80180814F
:100490000E940605892B21F09FEFC92ED92E25C079
:1004A000C70162E070E00E943007CB0103970E9411
:1004B0002404CC24DD24C0E0D0E0C7010E94240441
:1004C000F80180810E9406050C2E02C0880F991F3A
:1004D0000A94E2F7C82AD92A2196C830D10569F7CB
:1004E000F801868197810E942404C601DF91CF9193
:1004F0001F910F91FF90EF90DF90CF9008958FE0C4
:1005000091E00E94BA03882349F08FE091E00E94B5
:10051000B70380930E018436E1F503C010920E01FB
:1005200038C0809106010E9476049093090180935F
:100530000801809100010E94060590930B018093B1
:100540000A0160910801709109016B5F7F4F82E69B
:100550009BE00E9430076150704070930D016093E2
:100560000C018FE091E00E9492036CE28FE091E039
:100570000E940C0360910A0170910B018FE091E0E1
:100580000E9492038AE00E9455068FE091E00E944B
:10059000B40362E370E080E090E00E94020464E64D
:1005A00070E080E090E00E940204089510920E0135
:1005B0006091020170910301882777FD8095982F43
:1005C0000E949D0561E0809106010E94E80461E0BF
:1005D000809100010E94E80408950E9431040E9465
:1005E000D6020E947F02FDCF08950895CB01BA0183
:1005F0003327442755270E945D0608952AE00E946C
:10060000F6020895AB01662777270E94FE0208953F
:10061000862F0E9455060895862F0E94550608953C
:100620000F931F938C016DE00E940C036AE0C801D8
:100630000E940C031F910F9108950F931F938C013B
:100640000E94FE02C8010E9410031F910F9108959D
:100650000F931F938C010E940203C8010E94100394
:100660001F910F9108950F931F938C010E9408030F
:10067000C8010E9410031F910F9108950F931F93BB
:100680008C010E940C03C8010E9410031F910F915E
:100690000895EF92FF920F931F93CF93DF93EC0196
:1006A0007A018B0177FF0BC06DE20E940C0310955D
:1006B0000095F094E094E11CF11C011D111D2AE04D
:1006C000B801A701CE010E94F602DF91CF911F91E0
:1006D0000F91FF90EF9008950F931F938C010E944C
:1006E0004903C8010E9410031F910F91089521151D
:1006F000310521F4642F0E940C0308952A3031053E
:1007000019F40E94490308950E94F60208950F9378
:100710001F938C010E947703C8010E9410031F9150
:100720000F910895AB01662757FD6095762F0E94C3
:10073000490308950F931F938C010E949203C801EF
:100740000E9410031F910F910895CB010E9423076F
:1007500008950F931F938C010E94A503C8010E9466
:1007600010031F910F9108950E940E0608950E9494
:10077000EF0508950E94DE0599270895CB01BA017F
:100780000E949D050895089508951F920F920FB637
:100790000F9211248F939F93AF93BF938091140175
:1007A00090911501A0911601B09117010196A11D1C
:1007B000B11D8093140190931501A0931601B0937D
:1007C0001701BF91AF919F918F910F900FBE0F9026
:1007D0001F90189560911401709115018091160178
:1007E0009091170127E0660F771F881F991F2A95A0
:1007F000D1F72DE730E040E050E00E944307CA0106
:10080000B9010895AF92BF92CF92DF92EF92FF921B
:100810000F931F935B016C010E94EA037B018C0123
:100820000E94EA036E197F09800B910B6A157B0504
:100830008C059D05A8F31F910F91FF90EF90DF901D
:10084000CF90BF90AF900895019751F0880F991FF6
:10085000880F991F02972FB7F8940197F1F72FBFD0
:1008600008957894109214011092150110921601B7
:100870001092170184B5826084BD84B5816084BD07
:1008800085B5826085BD85B5816085BDEEE6F0E009
:10089000808181608083E1E8F0E0808182608083F4
:1008A000808181608083E0E8F0E0808181608083E6
:1008B000E1EBF0E0808184608083E0EBF0E0808118
:1008C00081608083EAE7F0E08081846080838081BA
:1008D0008260808380818160808380818068808362
:1008E0001092C1000895809304010895909104012D
:1008F0009295990F990F907C8F70982B90937C0014
:1009000080917A00806480937A0080917A0086FDDD
:10091000FCCF20917800809179009927982F882723
:100920003327822B932B08951F93CF93DF93182F98
:10093000EB0161E00E94E804E12FFF27E156FF4F41
:100940008491833051F4809180008068809380008E
:10095000D0938900C093880037C0843051F48091CF
:100960008000806280938000D0938B00C0938A00C7
:100970002BC0813029F484B5806884BDC7BD24C0F4
:10098000823029F484B5806284BDC8BD1DC0863024
:1009900041F48091B00080688093B000C093B300B0
:1009A00013C0873041F48091B00080628093B00022
:1009B000C093B40009C0C038D10514F460E001C090
:1009C00061E0812F0E945205DF91CF911F91089520
:1009D000282F3327C90185579F4FFC01949129582F
:1009E0003F4FF9018491882381F0E82FFF27E859D0
:1009F000FF4FE491FF27662329F480819095892396
:100A0000808308958081892B80830895482F5527FE
:100A1000CA0181569F4FFC012491CA0185579F4FFF
:100A2000FC01949149585F4FFA013491332319F432
:100A300080E090E00895222331F1233021F4809169
:100A400080008F7705C0243031F4809180008F7D45
:100A50008093800018C0213019F484B58F7704C0CA
:100A6000223021F484B58F7D84BD0DC0263021F461
:100A70008091B0008F7705C0273029F48091B000B5
:100A80008F7D8093B000E32FFF27EE58FF4FE49156
:100A9000FF27808120E030E0892311F021E030E061
:100AA000C9010895482F5527CA0181569F4FFC015F
:100AB0002491CA0185579F4FFC01949149585F4F7B
:100AC000FA0134913323C1F1222331F1233021F48F
:100AD000809180008F7705C0243031F480918000B0
:100AE0008F7D8093800018C0213019F484B58F77F2
:100AF00004C0223021F484B58F7D84BD0DC0263022
:100B000021F48091B0008F7705C0273029F48091BF
:100B1000B0008F7D8093B000E32FFF27E359FF4F94
:100B2000E491FF27662329F48081909589238083AF
:100B300008958081892B80830895EF92FF920F930F
:100B40001F937B018C0122E030E040E050E00E94E6
:100B50006507205C3D4B404F5F4FCA01B901A801BA
:100B600097010E9465072150304040405040BB270C
:100B700057FDBA95A52F942F832F2F5F3F4F4F4FCF
:100B80005F4F8093C50021502093C400E1ECF0E05A
:100B9000808180618083808188608083808180689B
:100BA00080831F910F91FF90EF900895982F80916F
:100BB000C00085FFFCCF9093C6000895809110017E
:100BC000909111012091120130911301821B930B1E
:100BD00080589F4F60E870E00E9430070895409170
:100BE000120150911301809110019091110184170D
:100BF000950719F48FEF9FEF0895FA01E85EFE4F15
:100C00002081CA01019660E870E00E94300790934D
:100C1000130180931201822F992708958091120168
:100C200090911301909311018093100108951F92E8
:100C30000F920FB60F9211242F933F934F935F9310
:100C40006F937F938F939F93AF93BF93EF93FF9394
:100C50004091C600E0911001F0911101CF01019681
:100C600060E870E00E9430079C0180911201909131
:100C700013012817390739F0E85EFE4F408330939F
:100C8000110120931001FF91EF91BF91AF919F91BE
:100C90008F917F916F915F914F913F912F910F9025
:100CA0000FBE0F901F9018950895982F8091C00047
:100CB00085FFFCCF9093C60008952F923F924F92EC
:100CC0005F926F927F928F929F92AF92BF92CF92DC
:100CD000DF92EF92FF920F931F93CF93DF93CDB7E5
:100CE000DEB7A0970FB6F894DEBF0FBECDBF6B0185
:100CF0007C0129013A01611571058105910541F4D5
:100D00008091C00085FFFCCF80E38093C60041C086
:100D10008824992454011E010894211C311C81014E
:100D2000080D191DC701B601A30192010E944307D6
:100D3000F80160830894811C911CA11CB11CC7019F
:100D4000B601A30192010E94430769017A012115AE
:100D500031054105510519F79E012F5F3F4F14C022
:100D6000089481089108A108B108F901E80DF91D5E
:100D7000E081EA3010F4E05D01C0E95C8091C000E0
:100D800085FFFCCFE093C60081149104A104B10457
:100D900039F7A0960FB6F894DEBF0FBECDBFDF9136
:100DA000CF911F910F91FF90EF90DF90CF90BF9068
:100DB000AF909F908F907F906F905F904F903F90FB
:100DC0002F90089520E130E040E050E00E945D0661
:100DD000089528E030E040E050E00E945D0608956C
:100DE00022E030E040E050E00E945D0608958091EE
:100DF000C00085FFFCCF8AE08093C6000895EF9283
:100E0000FF920F931F937B018C0197FF0FC080917E
:100E1000C00085FFFCCF8DE28093C6001095009541
:100E2000F094E094E11CF11C011D111D2AE030E05A
:100E300040E050E0C801B7010E945D061F910F918C
:100E4000FF90EF900895FC0107C08091C00085FFDE
:100E5000FCCF31969093C60090819923B1F7089505
:100E600097FB092E07260AD077FD04D049D006D07B
:100E700000201AF4709561957F4F0895F6F79095CC
:100E800081959F4F0895A1E21A2EAA1BBB1BFD015D
:100E90000DC0AA1FBB1FEE1FFF1FA217B307E40759
:100EA000F50720F0A21BB30BE40BF50B661F771FB1
:100EB000881F991F1A9469F7609570958095909591
:100EC0009B01AC01BD01CF01089597FB092E0526BA
:100ED0000ED057FD04D0D7DF0AD0001C38F450954F
:100EE0004095309521953F4F4F4F5F4F0895F6F74E
:100EF00090958095709561957F4F8F4F9F4F089586
:100F0000AA1BBB1B51E107C0AA1FBB1FA617B7072F
:100F100010F0A61BB70B881F991F5A95A9F780954B
:100F20009095BC01CD010895EE0FFF1F0590F4913F
:060F3000E02D0994FFCF43
:060F360007008025010008
:00000001FF
